:020000040800F2
:1000000000000220B9020008C1020008C502000871
:10001000C9020008CD020008D1020008000000005B
:10002000000000000000000000000000D5020008F1
:10003000D902000800000000DD020008E902000803
:10004000E5020008E5020008E5020008E5020008F4
:10005000E5020008E5020008E5020008E5020008E4
:10006000E5020008E5020008E5020008E5020008D4
:10007000E5020008E5020008E5020008E5020008C4
:10008000E5020008E5020008E5020008E5020008B4
:10009000E5020008E5020008E5020008E5020008A4
:1000A000E5020008E5020008E5020008E502000894
:1000B000E5020008F5280008E5280008E502000828
:1000C000E5020008E5020008E5020008E502000874
:1000D000E5020008E5020008E5020008E502000864
:1000E000E5020008E5020008E5020008E502000854
:1000F000E5020008E5020008E5020008E502000844
:10010000E5020008E5020008E5020008E502000833
:10011000E5020008E5020008E5020008E502000823
:10012000E5020008E5020008E5020008E502000813
:10013000E5020008E5020008E5020008E502000803
:10014000E5020008E5020008E5020008E5020008F3
:10015000E5020008E5020008E5020008E5020008E3
:10016000E5020008E5020008E5020008E5020008D3
:10017000E5020008E5020008E502000800000000B2
:10018000E5020008E502000800B583B001F05AFE60
:10019000384B394A1360394A136039490CE00A6810
:1001A0004B6801F10C04886803E01168196004339E
:1001B00004329842F9D82146324B9942EFD32E4B64
:1001C0001A68314B9A4204D12C4B1A682F4B9A4231
:1001D00000D0FEE7274B2E4A13602E4A13602E4BA9
:1001E0000AE0194651F8082B5B6802E00020106015
:1001F00004329A42FAD30B46284A9342F1D3244B55
:100200001B6813B9234B1B6803B1FEE702F0FAFB2E
:10021000694601A801F09AFD214C224B1C1BA41039
:10022000002504E01E4B53F8253098470135AC42B9
:10023000F8DC1D4C1D4B1C1BA410002504E01A4BC0
:1002400053F8253098470135AC42F8DC0099019805
:1002500003F08CF80546164C164B1C1BA41004E04A
:10026000013C134B53F824309847002CF8DC284607
:1002700001F03EFDBABADECA000000207401002081
:10028000F0020008080300087856341232547698B9
:1002900078010020EC020020080300081803000881
:1002A00018030008180300081803000818030008C2
:1002B000180300081803000808B5FFF765FF00BF22
:1002C000FEE700BFFEE700BFFEE700BFFEE700BF9E
:1002D000FEE700BFFEE700BFFEE700BFFEE700BF8E
:1002E000704700BFFEE700BF08B500F047F808BD43
:1002F0004C41000800000020780100204C4100081B
:10030000000000100000001078010020F002002022
:080310000000001000000010C5
:1003200010B5044600F0A4FE064BA3FB0030800984
:1003300000F0A6F8002221464FF0FF3000F052F8FE
:10034000002010BDD34D621008B50B4B1A6842F463
:1003500000721A601A6842F480621A601A6842F4E5
:1003600080721A60032000F01FF80F20FFF7D8FFFB
:1003700002F052FB002008BD003C0240024A136814
:1003800001331360704700BF7C010020014B1868E7
:10039000704700BF7C010020024A136823F002036B
:1003A0001360704710E000E010B50446C31E042B34
:1003B00003D9A421094801F0EBFC094AD36823F4CE
:1003C000E0631B041B0C240204F4E064234343F0A9
:1003D000BF6343F40033D36010BD00BF003D00088D
:1003E00000ED00E070B505460E4614460F2A03D90D
:1003F000BC211A4801F0CCFC0F2E03D9BD211748AF
:1004000001F0C6FC164BDB68C3F30223C3F10701FE
:10041000042928BF04211A1D062A01D9033B00E044
:100420000023012202FA01F101393140994002FA18
:1004300003F3013B1C400C43002D06DA05F00F05C9
:100440002401E4B2074B5C5570BD2401E4B205F110
:10045000604505F5614585F8004370BD003D000825
:1004600000ED00E014ED00E0420900F01F00012360
:1004700003FA00F0014B43F82200704700E100E06E
:100480000138B0F1807F0AD2064B5860F021064A4D
:1004900082F823100020986007221A60704701201C
:1004A000704700BF10E000E000ED00E02DE9F047EC
:1004B00080460F460B881BB9C321AC4801F068FC8D
:1004C0007B68012B22D9112B20D0022B1ED0122B9E
:1004D0001CD0A74A934219D002F58012934215D03E
:1004E00002F58012934211D0A2F5F81293420DD07A
:1004F00002F58012934209D002F58012934205D092
:10050000032B03D0C421994801F042FCBB68022BA5
:1005100003D9C521954801F03BFC002520E10124C9
:10052000AC403E682640B44240F019817B68022B03
:1005300001D0122B4AD13B69C3B3092B36D0ABB3E0
:10054000A3B39BB393B3012B30D02FD0022B2DD06C
:100550002CD02BD0032B29D0042B27D026D025D06C
:10056000052B23D022D0092B20D0062B1ED0092BFF
:100570001CD0072B1AD019D018D0082B16D015D0A4
:1005800014D0092B12D011D00A2B0FD00ED00B2B68
:100590000CD00C2B0AD009D00D2B07D00C2B05D07A
:1005A0000F2B03D0D621714801F0F2FBEA08083284
:1005B00058F8220005F0070399000F238B4020EA2A
:1005C00003003B698B40034348F82230D8F80030E1
:1005D0004FEA450A4FF0030909FA0AF96FEA0909D7
:1005E00003EA09027B6803F0030303FA0AF31343E7
:1005F000C8F800307B685A1E012A03D9112B01D09C
:10060000122B1BD1FB68032B03D9E921574801F0BA
:10061000BFFBD8F8083009EA0302FB6803FA0AF3C3
:100620001343C8F80830D8F8043023EA04047B6880
:10063000C3F30013AB401C43C8F80440D8F80C3097
:1006400009EA0309BB6803FA0AF349EA0303C8F895
:100650000C307B6813F0805F00F08180454A536C5A
:1006600043F480435364A9088A1C434B53F8220087
:1006700005F003039B000F229A4020EA02003F4A44
:10068000904525D002F58062904523D002F5806226
:10069000904521D002F5806290451FD002F580621E
:1006A00090451DD002F5806290451BD002F5806216
:1006B000904519D002F58062904517D002F580620E
:1006C000904515D002F58062904513D1092212E0C1
:1006D000002210E001220EE002220CE003220AE0D8
:1006E000042208E0052206E0062204E0072202E0D8
:1006F000082200E00A2202FA03F3034302311E4AF1
:1007000042F821301E4B1A68F34302EA030178686D
:1007100010F4803F01D046EA0201194A1160526884
:1007200003EA0201786810F4003F01D046EA0201B2
:10073000134A5160926803EA0201786810F4801F3E
:1007400001D046EA02010E4A9160D26813407968EE
:1007500011F4001F01D046EA0203094AD3600135B3
:100760000F2D7FF6DCAEBDE8F08700BF343D0008FA
:100770000000111000380240003801400000024023
:10078000003C014038B505460C4621B940F28511C0
:10079000044801F0FDFA2B691C4201D0012038BD4C
:1007A000002038BD343D000870B5054614460E469D
:1007B00021B94FF4D371074801F0EAFA012C04D9AA
:1007C00040F2A711034801F0E3FA0CB12E8370BD8B
:1007D0006E8370BD343D000838B5044603680F2BA6
:1007E00003D9FD21B34801F0D3FA236813F0010FB8
:1007F00061D06368012B06D9052B04D04FF48171B9
:10080000AC4801F0C5FAAC4B9B6803F00C03042B19
:100810000AD0A94B9B6803F00C03082B0ED1A64B02
:100820005B6813F4800F09D0A34B1B6813F4003FDF
:1008300041D06368012B40F0FF813CE000229F4BD8
:100840001A70FFF7A3FD054607E0FFF79FFD401B69
:1008500041F28833984200F2F181974B1B6813F400
:10086000003FF2D12279954B1A706368012B11D1A8
:10087000FFF78CFD054607E0FFF788FD401B41F2BE
:100880008833984200F2DC818B4B1B6813F4003FE5
:10089000F2D010E0FFF77AFD054607E0FFF776FD9E
:1008A000401B41F28833984200F2CC81824B1B6896
:1008B00013F4003FF2D1236813F0020F6ED0E36807
:1008C000012B04D94FF4A1717A4801F061FA236930
:1008D0001F2B04D940F24311764801F059FA764BA8
:1008E0009B6813F00C0F0AD0734B9B6803F00C034A
:1008F000082B1DD1704B5B6813F4800F18D16E4B21
:100900001B6813F0020F03D0E368012B40F09C81B9
:100910006948036823F0F8012269F82393FAA3F3E6
:10092000B3FA83F3DBB202FA03F30B43036035E05F
:10093000E3680BB30122624B1A60FFF727FD0546FF
:1009400005E0FFF723FD401B642800F27F815A4B2E
:100950001B6813F0020FF4D05748036823F0F80126
:100960002269F82393FAA3F3B3FA83F3DBB202FA12
:1009700003F30B43036011E00022514B1A60FFF7B1
:1009800005FD054605E0FFF701FD401B642800F268
:100990005F81494B1B6813F0020FF4D1236813F0F9
:1009A000080F2ED06369012B04D94FF4C17141485F
:1009B00001F0EEF9636993B10122424B1A60FFF72F
:1009C000E5FC054605E0FFF7E1FC401B642800F26A
:1009D0004181394B5B6F13F0020FF4D011E000221C
:1009E000384B1A60FFF7D2FC054605E0FFF7CEFC56
:1009F000401B642800F230812F4B5B6F13F0020F15
:100A0000F4D1236813F0040F6FD0A368012B06D92B
:100A1000052B04D04FF4D671264801F0B9F9264AC7
:100A2000136C43F080531364A2F5E432136843F46B
:100A300080731360FFF7AAFC054605E0FFF7A6FCEC
:100A4000401B642800F20A811F4B1B6813F4807F4F
:100A5000F4D000221D4B1A70FFF798FC054607E002
:100A6000FFF794FC401B41F28833984200F2F88073
:100A7000114B1B6F13F0020FF2D1227A134B1A7035
:100A8000A368012B11D1FFF781FC054607E0FFF7B2
:100A90007DFC401B41F28833984200F2E380064B14
:100AA0001B6F13F0020FF2D01FE0FFF76FFC05463B
:100AB00016E000BF743D00080038024002380240D2
:100AC00000004742800E47420070004070380240EC
:100AD000FFF75CFC401B41F28833984200F2C4806F
:100AE000674B1B6F13F0020FF2D1A369022B04D9DD
:100AF0004FF4F871634801F04BF9A369002B00F043
:100B0000B5805F4A926802F00C02082A00F0B080BB
:100B1000022B7ED1E3693BB1B3F5800F04D040F2E4
:100B2000F911584801F034F9236A3F2B04D94FF4E6
:100B3000FD71544801F02CF9636AC03BF02B04D9D5
:100B400040F2FB114F4801F023F9A36A022B0AD0AF
:100B5000042B08D0062B06D0082B04D04FF4FE71CE
:100B6000484801F015F9E36A043B0B2B04D940F225
:100B7000FD11444801F00CF90022434B1A60FFF7C5
:100B800005FC054604E0FFF701FC401B642871D812
:100B90003B4B1B6813F0007FF5D1216A626A47F670
:100BA000C07393FAA3F3B3FA83F3DBB202FA03F34D
:100BB0001943A36A5B085A1E4FF4403393FAA3F318
:100BC000B3FA83F3DBB202FA03F30B43E269134394
:100BD000E26A4FF0706191FAA1F1B1FA81F1C9B204
:100BE0008A40134343F00053254A53600122264BA9
:100BF0001A60FFF7CBFB044604E0FFF7C7FB001BBE
:100C0000642839D81E4B1B6813F0007FF5D00020F4
:100C100038BD00221C4B1A60FFF7B8FB044604E005
:100C2000FFF7B4FB001B642828D8154B1B6813F092
:100C3000007FF5D1002038BD012038BD032038BD2C
:100C4000032038BD032038BD012038BD032038BD46
:100C5000032038BD032038BD032038BD032038BD34
:100C6000032038BD032038BD032038BD002038BD27
:100C7000012038BD032038BD032038BD032038BD16
:100C800000380240743D00086000474270B50446D9
:100C90000D460368013B0E2B04D94FF418718748A9
:100CA00001F076F8072D04D940F26121834801F064
:100CB0006FF8834B1B6803F00F039D4240F28B805B
:100CC000EAB27F4B1A701B6803F00F039D4240F09D
:100CD0005181236813F0020F1DD0A368A3B1802BAC
:100CE00012D0902B10D0A02B0ED0B02B0CD0C02B3C
:100CF0000AD0D02B08D0E02B06D0F02B04D040F245
:100D000077216E4801F044F86E498B6823F0F002B9
:100D1000A36813438B60236813F0010F00F0E88091
:100D20006368022B04D940F27E21644801F030F858
:100D30006268012A05D1634B1B6813F4003F0ED192
:100D40001AE1022A05D15F4B1B6813F0007F06D120
:100D500014E15C4B1B6813F0020F00F0118159493C
:100D60008B6823F0030313438B60FFF70FFB0546EB
:100D70006368012B0FD107E0FFF708FB401B41F22E
:100D80008833984200F2FE804E4B9B6803F00C03C0
:100D9000042BF1D1ACE0022B17D107E0FFF7F6FAF4
:100DA000401B41F28833984200F2EE80454B9B682D
:100DB00003F00C03082BF1D19AE0FFF7E7FA401B90
:100DC00041F28833984200F2E1803E4B9B6813F079
:100DD0000C0FF2D18CE0236813F0020F1DD0A36832
:100DE000A3B1802B12D0902B10D0A02B0ED0B02B03
:100DF0000CD0C02B0AD0D02B08D0E02B06D0F02B83
:100E000004D040F2C6212D4800F0C2FF2D498B6866
:100E100023F0F002A36813438B60236813F0010FE3
:100E20005ED06368022B04D940F2CD21234800F044
:100E3000AFFF6268012A05D1224B1B6813F4003F03
:100E40000ED1A5E0022A05D11E4B1B6813F0007FCE
:100E500006D19FE01B4B1B6813F0020F00F09C8033
:100E600018498B6823F0030313438B60FFF78EFA56
:100E700006466368012B0FD107E0FFF787FA801B56
:100E800041F28833984200F289800E4B9B6803F050
:100E90000C03042BF1D123E0022B1CD106E0FFF759
:100EA00075FA801B41F28833984279D8054B9B68CC
:100EB00003F00C03082BF2D112E000BF743D0008D0
:100EC000003C024000380240FFF760FA801B41F20C
:100ED0008833984266D8354B9B6813F00C0FF3D1DA
:100EE000EAB2334B1A701B6803F00F039D425BD1CB
:100EF000236813F0040F19D0E36883B1B3F5805F62
:100F00000DD0B3F5A05F0AD0B3F5C05F07D0B3F53D
:100F1000E05F04D040F21D31264800F039FF23493C
:100F20008B6823F4E052E36813438B60236813F06B
:100F3000080F1AD0236983B1B3F5805F0DD0B3F5E4
:100F4000A05F0AD0B3F5C05F07D0B3F5E05F04D06F
:100F50004FF44971174800F01BFF144A936823F4BB
:100F60006043216943EAC10393600F20FFF7D8F97A
:100F7000002070BD012070BD012070BD012070BD3A
:100F8000012070BD032070BD032070BD032070BD23
:100F9000012070BD012070BD012070BD032070BD17
:100FA000032070BD032070BD012070BD00380240D9
:100FB000003C0240743D00082A4B9B6803F00C0380
:100FC000042B4BD0082B01D02748704710B4254B79
:100FD000586800F03F00596801F480014FF4800226
:100FE00092FAA2F2B2FA82F2D2B231FA02F311D03C
:100FF0001E4BB3FBF0F01B4B5A6847F6C0710A401A
:1010000091FAA1F3B3FA83F3DBB222FA03F303FB01
:1010100000F311E0144BB3FBF0F0124B5A6847F6A3
:10102000C07402EA040194FAA4F2B2FA82F2D2B2D3
:1010300021FA02F202FB00F30A4A506800F440323F
:101040004FF4403090FAA0F0B0FA80F0C0B222FA2B
:1010500000F001304000B3FBF0F001E003487047BE
:1010600010BC7047003802400024F40000127A00DF
:1010700008B5FFF7A1FF094B9B6803F0F002F023CE
:1010800093FAA3F3B3FA83F3DBB222FA03F3044A2D
:10109000D35CD840034B186008BD00BF0038024045
:1010A000643D00080C00002070B4036A23F00103C3
:1010B0000362036A4268846924F073040D6844EA99
:1010C000050623F002048B6823430F4DA84204D089
:1010D0000E4CA04203D1012402E0012400E00024D0
:1010E0005CB123F00803CD682B4323F0040322F402
:1010F00040724D6915438A692A43426086614A6895
:101100004263036270BC704700000140000401406C
:101110002DE9F04104460E46036A23F4807303620E
:10112000056A4768C36923F073080B6848EA030837
:1011300025F400738D6843EA0525204B984205D0BD
:1011400003F58063984203D1012302E0012300E00C
:1011500000235BB3F36833B1082B04D041F28F2135
:10116000174800F015FEB369B3F5007F05D023B131
:1011700041F29021124800F00BFE7369B3F5807FB5
:1011800005D023B141F291210D4800F001FE25F474
:101190000065F36845EA032525F4806527F4405788
:1011A000736947EA0317B36947EA03176760C4F82E
:1011B0001C807368E3632562BDE8F0810000014094
:1011C000A43D00082DE9F04104460F46036A23F4CC
:1011D00080530362056AD0F80480C66926F4E643AA
:1011E0000E6843EA062625F400538D6843EA053568
:1011F000114B984205D003F58063984203D1012337
:1012000002E0012300E0002373B17B69B3F5807F26
:1012100005D023B141F2D521084800F0B9FD28F4EA
:1012200080487B6948EA8318C4F80480E6617B68DB
:1012300023642562BDE8F08100000140A43D000860
:10124000704700BF10B504460368234A934237D065
:10125000B3F1804F34D0A2F57C42934230D002F5F6
:10126000806293422CD002F58062934228D002F52E
:101270008062934224D002F58062934220D002F52E
:10128000704293421CD002F57052934218D002F57E
:101290008062934214D002F58062934210D0A2F58E
:1012A000983293420CD002F58062934208D002F546
:1012B0008062934204D040F26111084800F068FD5A
:1012C0002268D36843F00103D3602268136843F0B7
:1012D00001031360002010BD00000140A43D000880
:1012E00010B504460368284A934237D0B3F1804FC3
:1012F00034D0A2F57C42934230D002F58062934212
:101300002CD002F58062934228D002F5806293428D
:1013100024D002F58062934220D002F570429342BD
:101320001CD002F57052934218D002F580629342AD
:1013300014D002F58062934210D0A2F59832934205
:101340000CD002F58062934208D002F5806293428D
:1013500004D04FF4BB710D4800F01AFD2268D36829
:1013600023F00103D3602368196A41F2111211427C
:1013700008D1196A40F24442114203D11A6822F09E
:1013800001021A60002010BD00000140A43D0008C9
:10139000704700BF704700BF704700BF704700BF75
:1013A000704700BF10B5044603681A6912F0020FB7
:1013B00017D0DA6812F0020F13D06FF002021A6130
:1013C0000123037603689B6913F0030F02D0FFF734
:1013D000E3FF04E0FFF7DEFF2046FFF7DFFF002317
:1013E000237623681A6912F0040F19D0DA6812F014
:1013F000040F15D06FF004021A61022323762368CC
:101400009B6913F4407F03D02046FFF7C5FF05E03A
:101410002046FFF7BFFF2046FFF7C0FF00232376DB
:1014200023681A6912F0080F19D0DA6812F0080F51
:1014300015D06FF008021A61042323762368DB6954
:1014400013F0030F03D02046FFF7A6FF05E0204668
:10145000FFF7A0FF2046FFF7A1FF002323762368B4
:101460001A6912F0100F19D0DA6812F0100F15D0A7
:101470006FF010021A61082323762368DB6913F4E6
:10148000407F03D02046FFF787FF05E02046FFF7A7
:1014900081FF2046FFF782FF0023237623681A6925
:1014A00012F0010F09D0DA6812F0010F05D06FF0C9
:1014B00001021A61204601F025FA23681A6912F028
:1014C000800F09D0DA6812F0800F05D06FF080022B
:1014D0001A61204600F00AFC23681A6912F0400FD6
:1014E00009D0DA6812F0400F05D06FF040021A619F
:1014F0002046FFF755FF23681A6912F0200F09D024
:10150000DA6812F0200F05D06FF020021A61204631
:1015100000F0EAFB10BD00BF0368454A904214D0BA
:10152000B0F1804F13D0A2F57C42904211D002F569
:10153000806290420FD002F5806290420DD002F599
:10154000784290420BD101220AE0012208E00122F8
:1015500006E0012204E0012202E0012200E0002274
:101560001AB123F070034A681343314A90422CD0D9
:10157000B0F1804F2BD0A2F57C42904229D002F5E9
:101580008062904227D002F58062904225D002F519
:101590007842904223D002F57052904221D002F559
:1015A000806290421FD002F5806290421DD0A2F569
:1015B000983290421BD002F58062904219D002F519
:1015C0008062904217D1012216E0012214E001222C
:1015D00012E0012210E001220EE001220CE00122C3
:1015E0000AE0012208E0012206E0012204E00122D3
:1015F00002E0012200E000221AB123F44073CA681D
:10160000134303608B68C3620B688362084B984284
:1016100005D003F58063984203D1012302E0012342
:1016200000E000230BB10B690363012343617047A2
:101630000000014000286AD010B504460368354A0E
:10164000934236D0B3F1804F33D0A2F57C4293421F
:101650002FD002F5806293422BD002F58062934234
:1016600027D002F58062934223D002F58062934234
:101670001FD002F5704293421BD002F57052934284
:1016800017D002F58062934213D002F58062934234
:101690000FD0A2F5983293420BD002F580629342AC
:1016A00007D002F58062934203D0D1211A4800F09E
:1016B0006FFBA3685BB1102B09D0202B07D0402B08
:1016C00005D0602B03D0D221134800F061FB2369C1
:1016D0004BB1B3F5807F06D0B3F5007F03D0D321A3
:1016E0000D4800F055FB94F8393013F0FF0F02D18C
:1016F0002046FFF7A5FD022384F83930211D20681C
:10170000FFF70AFF012384F83930002010BD0120C3
:10171000704700BF00000140A43D000800286DD0C4
:1017200010B504460368364A934237D0B3F1804F70
:1017300034D0A2F57C42934230D002F580629342CD
:101740002CD002F58062934228D002F58062934249
:1017500024D002F58062934220D002F57042934279
:101760001CD002F57052934218D002F58062934269
:1017700014D002F58062934210D0A2F598329342C1
:101780000CD002F58062934208D002F58062934249
:1017900004D040F2F7311B4800F0FAFAA36863B1B5
:1017A000102B0AD0202B08D0402B06D0602B04D061
:1017B0004FF47E71134800F0EBFA236953B1B3F58F
:1017C000807F07D0B3F5007F04D040F2F9310D4897
:1017D00000F0DEFA94F8393013F0FF0F02D1204602
:1017E000FFF7D6FD022384F83930211D2068FFF76A
:1017F00093FE012384F83930002010BD012070478A
:1018000000000140A43D00082DE9F04104460E46C9
:10181000036A23F010030362056AD0F80480876925
:1018200027F4E6430F6843EA072725F020038D6875
:1018300043EA0515204B984205D003F58063984292
:1018400003D1012302E0012300E000235BB3F3682E
:1018500033B1082B04D041F24B21184800F098FA1C
:10186000B369B3F5007F05D023B141F24C21134891
:1018700000F08EFA7369B3F5807F05D023B141F291
:101880004D210E4800F084FA25F08005F36845EA02
:10189000031525F0400528F44068736948EA830879
:1018A000B36948EA8308C4F80480A7617368A36336
:1018B0002562BDE8F08100BF00000140A43D0008A2
:1018C00090F83830012B00F0428170B516460D4675
:1018D0000446012380F8383062B1042A0AD0082A6D
:1018E00008D00C2A06D0182A04D040F6574199484F
:1018F00000F04EFA2B68602B06D0702B04D040F617
:101900005841944800F044FAAB6833B1022B04D03C
:1019100040F659418F4800F03BFAEB6833B1082B91
:1019200004D040F65A418B4800F032FAAB69B3F567
:10193000007F05D023B140F65B41864800F028FACD
:101940006B69B3F5807F05D023B140F65C418148D7
:1019500000F01EFA022384F839300C2E00F2F080D9
:10196000DFE816F00D00EE00EE00EE005500EE0090
:10197000EE00EE008E00EE00EE00EE00BE002368EA
:10198000754A93422FD0B3F1804F2CD0A2F57C4200
:10199000934228D002F58062934224D002F58062FF
:1019A000934220D002F5784293421CD002F5705247
:1019B000934218D002F58062934214D002F58062FF
:1019C000934210D0A2F5983293420CD002F5806277
:1019D000934208D002F58062934204D040F66441FD
:1019E0005C4800F0D5F929462068FFF75DFB2268C6
:1019F000936943F0080393612268936923F0040319
:101A00009361226891692B690B43936198E0236885
:101A1000514A93421FD0B3F1804F1CD0A2F57C42B3
:101A2000934218D002F58062934214D002F580628E
:101A3000934210D002F5784293420CD002F57052D6
:101A4000934208D0A2F59432934204D040F67341F9
:101A5000404800F09DF929462068FFF7D5FE22682E
:101A6000936943F4006393612268936923F480636C
:101A7000936122689369296943EA012393615FE0D6
:101A80002368354A934217D0B3F1804F14D0A2F5A2
:101A90007C42934210D002F5806293420CD002F552
:101AA0008062934208D002F57842934204D040F617
:101AB0008241284800F06CF929462068FFF728FB8E
:101AC0002268D36943F00803D3612268D36923F005
:101AD0000403D3612268D1692B690B43D3612FE0E2
:101AE00023681D4A934217D0B3F1804F14D0A2F55A
:101AF0007C42934210D002F5806293420CD002F5F2
:101B00008062934208D002F57842934204D040F6B6
:101B10009141104800F03CF929462068FFF752FB3C
:101B20002268D36943F40063D3612268D36923F444
:101B30008063D3612268D369296943EA0123D361B1
:101B4000012384F83930002084F8380070BD022069
:101B5000704700BFA43D00080000014070B5044676
:101B60000E461546264B98422FD0B0F1804F2CD010
:101B7000A3F57C43984228D003F58063984224D093
:101B800003F58063984220D003F5784398421CD037
:101B900003F57053984218D003F58063984214D02F
:101BA00003F58063984210D0A3F5983398420CD087
:101BB00003F58063984208D003F58063984204D00F
:101BC00041F23A410F4800F0E3F866B1042E0AD022
:101BD000082E08D00C2E06D0182E04D041F23B411E
:101BE000084800F0D5F8012303FA06F2236A23EA35
:101BF00002032362236AB5401D43256270BD00BF06
:101C000000000140A43D000838B504460D460368B5
:101C10002D4A934212D0B3F1804F0FD0A2F57C42EF
:101C200093420BD002F58062934207D002F58062A6
:101C3000934203D002F57842934206D135B3042D86
:101C400024D0082D22D00C2D20D0204A934202D13E
:101C5000E5B1042D1AD01E4A934200D1B5B11D4AF8
:101C6000934200D195B11C4A934202D175B1042D23
:101C70000CD01A4A934200D145B1194A934200D17F
:101C800025B140F25D41174800F082F80122294653
:101C90002068FFF763FF23680B4A934205D002F5E3
:101CA0008062934203D1012202E0012200E000227F
:101CB0001AB15A6C42F400425A642268136843F025
:101CC00001031360002038BD0000014000400140C6
:101CD000004401400048014000180040001C004042
:101CE00000200040A43D0008704700BF704700BFBF
:101CF000FEE700BF08B5034800F06CF80120FFF7CD
:101D0000F7FF00BFD43D000808B50D4B1B6813B9A1
:101D10000C4A0B4B1A600A4B1A68C31C23F00303CE
:101D2000134409498B4206D901F062FB0C2303607E
:101D30004FF0FF3008BD02490B60104608BD00BFE0
:101D400080010020F002002000FC0120012303603C
:101D5000014B0B60704700BF0400002000B583B04A
:101D60000C46194613460AB1064A00E0064A03B972
:101D7000054B0193009223460246044800F012F8F6
:101D8000FFF7B8FFE83D0008803E0008F83D000876
:101D900008B50A460146024800F004F8FFF7AAFF1A
:101DA000283E00080FB400B583B004AB53F8042BF1
:101DB00001938021064801F055FB002803DD014610
:101DC000034800F03BF803B05DF804EB04B0704743
:101DD0008801002010B5044601F010FB01462046A2
:101DE00000F02CF80121024800F028F810BD00BFD7
:101DF000543E000810B400221AE04FF06043D3F8BC
:101E0000803E13F0010F06D04FF06043D3F8003E40
:101E100013F0010F01D110460DE04FF060431B6835
:101E2000002BFAD004784FF060431C70013201306F
:101E30008A42E2D3084610BC704700BF08B5FFF7DE
:101E4000D9FF08BD08B500F001F808BD0C4B1A68B1
:101E500042F001021A60002199601A6822F084722F
:101E600022F480321A60074A5A601A6822F48022EB
:101E70001A60D9604FF00062034B9A60704700BF50
:101E8000003802401030002400ED00E008B50120C9
:101E900000F054FC002000F051FC00F045FC00F084
:101EA000D9FB00F0B7FB3F2000F082FC00F0C2FB42
:101EB0003F2000F07DFC08BDF8B5072805D8044692
:101EC0000F4615461E46072905D92A4B2A4AAE2138
:101ED0002A48FFF743FF2A4B1B783BB1032802D85F
:101EE00000F098FB09E000F0A5FB06E0032802D80B
:101EF00000F0A0FB01E000F08DFB00F015FC204B92
:101F00001B78A3B1C7F1BF0080B200F051FC032CD5
:101F100006D8C4F10B00C00080B200F049FC18E004
:101F2000C4F11300C00080B200F042FC11E007F1E0
:101F3000B80000F03DFC032C06D804F10C00C000F2
:101F400080B200F035FC04E0201DC00080B200F03B
:101F50002FFC00F0DFFB002408E00A4B03EBC50375
:101F60001857704080B200F023FC0134072CF4DDD8
:101F7000F8BD00BF74400008A84000088840000871
:101F8000080100201000002007281FD807291DD8AD
:101F90002DE9F0410D4604460D4F3978DFF83880C1
:101FA00098F800000B4E06EBC1020023125CFFF70D
:101FB00083FF06EBC506FF23325D29462046FFF767
:101FC0007BFF88F800403D70BDE8F081704700BF9E
:101FD000160200208C00002015020020072819D8C6
:101FE000072917D8F8B50D4604460B4E31780B4F2C
:101FF00038780B4A02EBC1020023125CFFF75CFF4A
:10200000FF23084A127829462046FFF755FF3C7007
:102010003570F8BD704700BF160200201502002081
:102020008C0000203002002008B5044B18780130E5
:10203000034B1978C0B2FFF7A7FF08BD15020020B7
:102040001602002008B5044B18780138034B1978A4
:10205000C0B2FFF799FF08BD15020020160200204C
:1020600008B5044B19780139C9B2034B1878FFF74A
:102070008BFF08BD160200201502002008B5044B96
:1020800019780131C9B2034B1878FFF77DFF08BDFD
:10209000160200201502002008B5044B1878013004
:1020A000034B1978C0B2FFF799FF08BD1502002055
:1020B0001602002008B5044B18780138034B197834
:1020C000C0B2FFF78BFF08BD1502002016020020EA
:1020D00008B5044B19780139C9B2034B1878FFF7DA
:1020E0007DFF08BD160200201502002008B5044B34
:1020F00019780131C9B2034B1878FFF76FFF08BD9B
:1021000016020020150200202DE9F04F83B083460F
:102110000191904699469DF830A0002643E02EB9E3
:102120001AF0010F02D000F075FA06E0012E39D145
:102130001AF0020F36D000F07DFA00F0F5FACBF17C
:10214000BF0080B200F034FBC6F10400A9EB8902A5
:10215000530003EB4013019A981A80B200F028FB59
:1021600000F0D8FA00251AE0002000F021FB01342D
:1021700000E00024002CF7DD00240DE07B1B43442D
:1021800013F9013C1C3B03EB83032344084AD0565C
:1021900080B200F00DFB0134042CEFDD01354F4619
:1021A0004D45E6DB0136012EB9DD03B0BDE8F08F09
:1021B000843E00082DE9F04788B005460E4600F041
:1021C00049FA00242AE1062C0FD19A4B1B780BB94F
:1021D0001D2300E01C23984A9370032300930523DA
:1021E00001210846FFF790FF67E0042C08D1934BCC
:1021F0001A680320009005230121FFF785FF5CE0AA
:10220000032C09D18E4B1A68032300930423012168
:102210001846FFF779FF50E0012C4ED100238DF8CE
:102220001C30DFF8349299F80120DFF83082A8FBE7
:102230000213DB0803EB83004100521A30328DF8A1
:102240001B20DBB2A8FB0312D20802EB8202510072
:102250005B1A30338DF81A303A238DF8193008AFF5
:102260001C2307F8083D0123009304233A4619462E
:102270000620FFF749FF99F80020A8FB0213DB08AE
:1022800003EB83004100521A30328DF81B20DBB281
:10229000A8FB0312D20802EB820251005B1A303312
:1022A0008DF81A301D238DF8183002230093042373
:1022B0003A4619460620FFF727FF00F0BBF900F069
:1022C00033FA04F1B80A1FFA8AFA504600F070FA9D
:1022D000602000F06DFA6EB1621C5A4B13EAC20323
:1022E00003D5013B63F03F03013303F1C00080B22B
:1022F00000F05EFA00F00EFA4FF0000923E095B10D
:102300004C4B1B782BB9504B03EBC40313F80980DB
:102310000BE0C4F10701C9F107034B4A02EBC1020C
:1023200012F8038001E04FF00408002707E0474B54
:1023300003EBC803D85780B200F03AFA0137072FF1
:10234000F5DD09F10109B9F1030FD8DD00F062F9FB
:1023500000F0EAF9504600F02BFA402000F028FA8D
:102360006EB1621C374B13EAC20303D5013B63F025
:102370003F03013303F1C00080B200F019FA00F00E
:10238000C9F94FF0000925E0A5B12A4B1B783BB9EC
:1023900009F104032C4A02EBC40212F803800BE09B
:1023A000C4F10701C9F10303274A02EBC10212F885
:1023B000038001E04FF00408002707E0234B03EB04
:1023C000C803D85780B200F0F3F90137072FF5DDC5
:1023D00009F10109B9F1030FD6DDF6B10123059327
:1023E00016E0002303930BE00023049302E0049B18
:1023F00001330493049B132BF9DD039B01330393F7
:10240000039A4EF65F239A42EEDD059B0333059354
:10241000059B072B01DC062CE3DD0134072C7FF73D
:10242000D2AE0B4B19780B4B1878FFF7ADFD08B007
:10243000BDE8F087080100204000002028020020AD
:102440002C0200203F0000808C00002010000020A3
:10245000160200201502002018020020CDCCCCCCA2
:1024600008B5084A1378B3FA83F35B09137023B1F4
:1024700000210120FFF79EFE08BD00210846FFF75E
:1024800099FE08BD4600002070B500F0E3F8012673
:102490002BE0012E03D100F0BDF8002522E000F072
:1024A000C9F8FAE700F040F905F1B80080B200F091
:1024B0007FF9402000F07CF900F02CF900240EE0B8
:1024C0001DB9012000F074F908E0072D03D1802028
:1024D00000F06EF902E0002000F06AF901343F2CB0
:1024E000EEDD0135072DDDDD0136022ED1DD054A99
:1024F000054B1A60054A064B1A6001210846FFF792
:1025000059FE70BD9840000828020020A040000835
:102510002C0200202DE9F04387B03A4B1A6B42F0B1
:1025200002021A631A6B42F004021A631A6B42F039
:1025300008021A631A6B42F010021A630024029414
:102540000394049406AD4FF47F4345F8143D2E4E9A
:1025500029463046FDF7AAFF01270297C8230193B9
:1025600029463046FDF7A2FF224608213046FEF7F5
:102570001BF9224680213046FEF716F922464021FB
:102580003046FEF711F94FF08009CDF80490DFF8DE
:10259000808029464046FDF789FF2246494640464D
:1025A000FEF702F9B0230193A8F54068294640469A
:1025B000FDF77CFF224649464046FEF7F5F83A46CD
:1025C00030214046FEF7F0F8029403974FF4784329
:1025D000019329463046FDF769FF02230293032346
:1025E0000593049403944FF480730193294607489C
:1025F000FDF75CFF3A4608213046FEF7D5F807B0F4
:10260000BDE8F08300380240000C024000080240A0
:102610000010024010B5064C002210212046FEF7A3
:10262000C3F8012220212046FEF7BEF810BD00BFEE
:102630000004024010B5064C002220212046FEF77F
:10264000B3F8012210212046FEF7AEF810BD00BFFE
:102650000004024030B587B00123029300220392A8
:10266000049206AC4FF47F4344F8143D054D80219D
:102670002846FEF799F821462846FDF717FF07B0D0
:1026800030BD00BF0010024010B586B00023029399
:102690000393049306A94FF47F4341F8143D054C7E
:1026A0002046FDF703FF012280212046FEF77CF83B
:1026B00006B010BD0010024000B583B000230193A6
:1026C00002E0019B01330193019B4B2BF9DD0122B9
:1026D00080210748FEF768F80023019302E0019B80
:1026E00001330193019B5C2BF9DD03B05DF804FB22
:1026F000000C024008B5002280210248FEF754F881
:1027000008BD00BF000C024008B5FFF7D5FFFFF77A
:10271000F1FF08BD08B5012240210248FEF744F848
:1027200008BD00BF000C024008B50022402102484D
:10273000FEF73AF808BD00BF000C024008B528B902
:10274000012208210448FEF72FF808BD00220821C5
:102750000148FEF729F808BD000C024010B582B010
:1027600040211148FEF70EF80446FFF78DFFFFF7F2
:10277000DBFF0123019309E0FFF79EFF4FF40041C7
:102780000A48FDF7FFFF0190FFF7B4FF019B002B04
:10279000F2D1221C18BF012240210348FEF704F8A1
:1027A000FFF758FF02B010BD000C024000100240BD
:1027B00010B50446FFF74EFFFFF7D0FFE0B2054B20
:1027C0005A69D2B25A615A6942EA00205861FFF749
:1027D0009BFF10BD00100240F0B589B0324E336C43
:1027E00043F004033364314D00242C762C61AC603B
:1027F0005323EB6042F20F776F602D4B2B6028461E
:10280000FEF718FF2846FEF71DFD224621461E2032
:10281000FDF7E8FD1E20FDF727FE336C43F00203B1
:102820003364244804760461846042F2CF03C360B9
:102830004760214B0360FEF7FDFE012221461D206B
:10284000FDF7D0FD1D20FDF70FFE736C43F0020372
:1028500073641A4D08262E762C61AC606323EB60FE
:1028600040F2E7336B606C61154B2B6085F83940A3
:102870002846FEF7DFFE2846FEF750FF602301934F
:102880003C230293069405944FF400730793049637
:102890000394324601A92846FFF712F8314628462C
:1028A000FFF7B2F909B0F0BD00380240AC020020D9
:1028B00000080040340200200004004070020020A4
:1028C0000004014008B50248FEF7BCFC08BD00BF8B
:1028D0003402002008B50248FEF702FD08BD00BF23
:1028E0003402002008B50248FEF75CFD08BD00BFB9
:1028F000AC02002008B50248FEF754FD08BD00BF39
:102900003402002003681E4A93422ED110B582B0D3
:1029100027E04FF40061A14089B21A48FDF732FF69
:10292000C0B28DF80700184B1B5D5AB2012A0DD1B9
:102930009DF8072012F0FF0F08D1144B1C600122F4
:10294000134B1A600022104B1A5508E03BB99DF852
:1029500007305BB2012B02D101220B4B1A55013417
:1029600000E00024042CD4DD07E00A4A934203D19E
:102970000122094B1A607047704702B010BD00BFBA
:1029800000080040000C0240480000200C0200201B
:1029900010020020000400400802002010B592B090
:1029A000174A136C43F080531364A2F5E4321368A2
:1029B00043F44043136001230193029302240794DC
:1029C0004FF480030893082309934FF4A8730A93E4
:1029D0000B9407230C9301A8FDF7FEFE0F230D9324
:1029E0000E9400230F934FF4A05310934FF4805391
:1029F000119305210DA8FEF749F912B010BD00BFD3
:102A00000038024008B5FFF721FAFDF79DFCFDF7FD
:102A1000C3FCFFF7C3FF08BD08B5FFF77BFDFFF759
:102A200035FAFFF7D9FE0520FDF7BEFC08BD00BF53
:102A300010B5FFF74FFF0024294B1C60FFF774FE11
:102A400021460DE081F0010303F0010305E0254A72
:102A500002EBC1020020D0540233072BF7DD013115
:102A60000229EFDD03200AE01E4A02EBC002042126
:102A7000D154013300E00023072BF5DD0130042899
:102A8000F9DD05210DE081F0010303F0010305E00C
:102A9000144A02EBC1020220D0540344072BF7DD95
:102AA00001310729EFDD104B0C221A705A700F4AC2
:102AB000117853780B4413F0010F0CBF0122002250
:102AC0000B4B1A7000230B4A13700B4A13700B4AFE
:102AD00013700B4A13700B4A1370FFF7D5FC10BD2F
:102AE000080200208C0000200C01002018020020A9
:102AF0000801002017020020140200201A02002002
:102B0000150200201602002008B5072801D8072961
:102B100005D9054B054A2E210548FFF71FF9054B3E
:102B200003EBC1010A5408BD744000080C410008C1
:102B3000D04000088C000020104B1B78EBB970B51A
:102B40000F4E104D104C327829782078FFF7DCFFBB
:102B50000023327829782078FFF7AEF90B4B1978EB
:102B60000B4B18780B4A02EBC102FF23125CFFF7F4
:102B7000A3F90022084B1A7070BD70471A0200209A
:102B800030020020E9020020E802002016020020A6
:102B9000150200208C0000201702002038B50B4DD4
:102BA0000B4C042229782078FFF7AEFF0023042283
:102BB00029782078FFF780F9064B1A78064B1978A8
:102BC000064B1878FFF7A0FF38BD00BFE9020020D0
:102BD000E80200203002002016020020150200202A
:102BE00030B4474B1B782BB9464A02EBC102125C4A
:102BF000520807D0012B31D1424A02EBC102125CCC
:102C0000032A2BD1851E13D48A1C072A10DC3D4CC5
:102C100004EBC202525D042A0AD14C1C421E394DFB
:102C200005EBC404A45C83F00102B2EB540F53D053
:102C3000821C072A12DC8C1C072C0FDC314D05EBA3
:102C4000C404A25C042A09D14C1C421C05EBC40438
:102C5000A45C83F00102B2EB540F3FD0012B06D1EC
:102C6000284A02EBC102125C5208012A07D0002B4D
:102C700036D1244A02EBC102125C012A32D1841EF1
:102C800012D48D1E10D41F4A02EBC502125D042A15
:102C90000AD14C1E421E1B4D05EBC404A45C83F0FC
:102CA0000102B2EB540F1FD0821C072A1EDC8D1EBE
:102CB0001ED4144C04EBC504A25C042A1AD10139B9
:102CC0000130104A02EBC1010A5C83F00103B3EB4F
:102CD000520F11D0002010E001200EE001200CE086
:102CE00000200AE0002008E0012006E0002004E0C7
:102CF000002002E0002000E0012030BC704700BF4F
:102D0000080100208C00002038B5002573E085F014
:102D1000010404F001046BE0424B03EBC5031B5DAF
:102D2000414A1278B2EB530F61D1032B54D8DFE83C
:102D300003F0022B172B6A1C072A53DC631E05D4F1
:102D4000384901EBC201CB5C042B58D0611C072928
:102D500048DC344B03EBC2035B5C042B42D150E0F4
:102D6000691E3FD4631E05D42E4A02EBC102D35C18
:102D7000042B48D0621C072A34DC2A4B03EBC10326
:102D80009B5C042B2ED140E06A1C072A10DC631EDA
:102D900005D4244901EBC201CB5C042B37D0611C64
:102DA000072905DC1F4B03EBC2035B5C042B30D00F
:102DB000691E17D4631E05D41A4A02EBC102D35C04
:102DC000042B28D0621C072A0CDC164B03EBC10332
:102DD0009B5C042B06D120E0144B154A5821154862
:102DE000FEF7BCFFE9B2E0B2FFF7FAFEB8B9023471
:102DF000072C91DD0135072D89DD002038BD01202C
:102E000038BD012038BD012038BD012038BD01206A
:102E100038BD012038BD012038BD012038BD01205A
:102E200038BD00BF8C00002008010020E0400008F1
:102E3000C0400008D040000838B52A4A147884F011
:102E400001031370284AD35C13B1FFF75DFFB0B9DB
:102E5000244B1C70254A135D01331355244A254B1E
:102E60001A60254A254B1A600823254A1370254A03
:102E70001370FFF727FD0222234B1A7038BD00257F
:102E8000214B1D70214B1D7011E0E9B2E0B2FFF73C
:102E9000A7FE10B101221D4B1A70013400E000247E
:102EA000072C03DC194B1B78002BEED00135072DC6
:102EB00003DC164B1B78002BF1D0144B1B7833B17D
:102EC000134A0C4B1A60134A0C4B1A6005E0124A65
:102ED000084B1A60084A094B1A6001210846FFF79F
:102EE00069F938BD080100200C01002018020020FB
:102EF000E440000828020020A04000082C02002026
:102F000016020020150200201702002014020020E3
:102F1000EC400008F44000089840000808B5144B45
:102F20001B7833B1134B1978134B1878FFF758FE01
:102F3000E0B1104B1978104B1878104B03EBC1031C
:102F40001B5C0F4A1278B2EB530F0FD10D4A13706E
:102F50000522FFF7D9FD084B1A780B4B1A70054B69
:102F60001A780A4B1A700122094B1A7008BD00BF6B
:102F70001402002016020020150200208C00002000
:102F80000801002030020020E8020020E9020020B1
:102F90001702002038B5A84B1978A84B1A78A84B0F
:102FA00003EBC1039B5C042B02D0FFF7C5FD38BDCA
:102FB000A44B1B78032B00F2BA81DFE813F0040066
:102FC000260195002601A04B1878F8B99F4B1B7875
:102FD0005C1EA24202D001339A4217D19C4B1B784F
:102FE0000133994212D1FFF7D9FD934B1978072984
:102FF00077D1924B1878924B03EBC1031A5C0132E4
:103000001A54FF230122FEF757FF6AE08F4B1B780B
:103010009C1EA24202D09C1CA2425FD18C4C247800
:103020000234A1425AD11A44C2F347040139CDB245
:10303000834B03EBC5031A5D864B1B7883F00103BA
:10304000B3EB520F47D128B9834B844ACF21844830
:10305000FEF784FEFFF7A2FD042229462046FFF773
:1030600053FD0023042229462046FEF725FF7D4A12
:103070005378013B5370714B1D786F4B1C78214680
:103080002846FFF7ADFD90B1052221462846FFF7FF
:103090003BFD6A4B1A786D4B1A70674B1A786C4B74
:1030A0001A700123704A1370674A137038BD0023E9
:1030B0006D4A1370644A1370072C12D1604B03EBF6
:1030C000C4035A5D01325A55FF2301222146284686
:1030D000FEF7F2FE05E0FFF72FFD38BDFFF72CFDF0
:1030E00038BDFFF7A9FE38BD574B1878F8B9574BD4
:1030F0001B785C1EA24202D001339A4217D1544B76
:103100001B78013B994212D1FFF748FD4A4B1978D1
:10311000002977D1494B1878494B03EBC1031A5C5E
:1031200001321A54FF230322FEF7C6FE6AE0474B22
:103130001B789C1EA24202D09C1CA2425FD1444C30
:103140002478023CA1425AD11A44C2F34704013107
:10315000CDB23B4B03EBC5031A5D3E4B1B7883F0AE
:103160000103B3EB520F47D130B93B4B3B4A40F21E
:1031700003113B48FEF7F2FDFFF710FD042229463C
:103180002046FFF7C1FC0023042229462046FEF713
:1031900093FE344A1378013B1370284B1D78264B5D
:1031A0001C7821462846FFF71BFD90B105222146D9
:1031B0002846FFF7A9FC214B1A78244B1A701E4BA6
:1031C0001A78234B1A700123274A13701E4A137072
:1031D00038BD0023244A13701B4A137094B9184B4E
:1031E00003EBC4035A5D01325A55FF2303222146E3
:1031F0002846FEF761FE05E0FFF79EFC38BDFFF7AD
:103200009BFC38BDFFF718FE38BD0F4B1B786BBB1E
:103210000E4B1B78D31A002BB8BF5B42012B25D174
:103220000B4B1B78CB1A002BB8BF5B42012B1DD177
:10323000FFF7B4FC78E000BF160200201502002062
:103240008C0000203002002014020020E802002040
:10325000E902002008010020FC400008B4400008FA
:10326000D04000080C0100201A020020334B1878CF
:10327000131A002BB8BF5B42022B52D1304B1B7884
:10328000CC1A002CB8BF6442022C4AD10244C2F3CB
:1032900047041944C1F347052A4B03EBC5031A5DE4
:1032A000294B1B7883F00103B3EB520F36D1FFF7A4
:1032B00075FC042229462046FFF726FC0023042241
:1032C00029462046FEF7F8FD1F4B1B7883F00103CB
:1032D0001E49CA5C013ACA541D4B1C781D4B1D780F
:1032E00029462046FFF77CFC90B10522294620465E
:1032F000FFF70AFC164B1A78104B1A70154B1A7808
:103300000F4B1A700123144A1370144A137038BDFE
:103310000023114A1370114A137005E0FFF70CFCEB
:1033200038BDFFF709FC38BDFFF786FD38BD0C4BF3
:103330000C4A4FF4A7710C48FEF710FDE80200207C
:10334000E90200208C000020080100200C01002070
:1033500015020020160200201A020020140200208C
:10336000E0400008B4400008D040000808B5FFF76E
:103370008BF80023174A1360174A1360174A13602B
:10338000154B1B68E3B10022134B1A60144B1B78DA
:103390005BB1104B1A68134B1B7803EB8303134488
:1033A000114A52F8233098470AE00A4B1A680D4B2D
:1033B0001B7803EB830313440C4A52F823309847DD
:1033C000064B1B68002BDBD00022044B1A60FFF772
:1033D00047F8D5E70C020020100200200802002068
:1033E000080100201702002050000020CC0000201F
:1033F000014B1868704700BF70010020034613F8A6
:10340000012B002AFBD1181A0138704730B5141E61
:1034100005469BB0184604DA8B232B604FF0FF3033
:103420001DE04FF40273ADF80C3014BF04F1FF330C
:103430002346029305934FF6FF7300910491ADF874
:103440000E3002461E9B6946284600F073F8431C66
:10345000BCBF8B232B6014B1009B00221A701BB0E1
:1034600030BD000007B5009313460A4601460348E5
:103470000068FFF7CBFF03B05DF804FB700100208C
:103480002DE9F0478E689E4282460C46914698464A
:103490003ED88A8912F4906F3AD0256809696F1A6C
:1034A0006569022305EB450595FBF3F57B1C434459
:1034B0009D4238BF1D4653050FD5294600F08CFBB1
:1034C000064698B13A46216900F01AFBA38923F415
:1034D000906343F08003A38113E02A4600F0D0FB01
:1034E000064670B92169504600F030FB0C23CAF83B
:1034F0000030A38943F04003A3814FF0FF30BDE8C3
:10350000F087266165613E44ED1B2660A560464656
:10351000464528BF464632464946206800F0FBFA39
:10352000A3689B1BA36023681E4426600020BDE89F
:10353000F08700002DE9F04F9DB0804603938B8902
:103540001C060D4616460DD50B695BB9402100F0EF
:1035500043FB2860286118B90C23C8F80030CDE07F
:1035600040236B610023099320238DF82930DFF875
:103570009CB130238DF82A3037463C4614F8013B85
:103580001BB9B7EB060910D003E0252BF9D027466D
:10359000F3E74B46324629464046FFF771FF0130BC
:1035A00000F0A780099B4B4409933B78002B00F067
:1035B000A08000234FF0FF320493079305920693F7
:1035C0008DF853301A930126052221784E4800F0D9
:1035D00047FA671C049B38B14B4A801A06FA00F080
:1035E000184304903C46EFE7D90644BF20228DF8EB
:1035F00053201A0744BF2B228DF8532022782A2A01
:1036000003D0079A00210A200BE0039A111D1268CB
:103610000391002A10DA524243F00200079204900C
:103620000BE0274601343B78303B092B03D800FBE5
:1036300002320121F5E701B107923B782E2B1ED112
:103640007B782A2B0AD1039B1A1D1B680392002B3F
:10365000B8BF4FF0FF330237059310E00023059306
:10366000781C19460A24074601303A78303A092A6C
:1036700003D804FB01210123F5E703B105910322DF
:103680003978224800F0ECF940B14023CBEB000040
:1036900003FA00F0049B18430490013739781C4862
:1036A0008DF8281006227E1C00F0DAF988B1194B3B
:1036B00033B9039B073323F007030833039314E064
:1036C00003AB00932A46144B04A94046AFF3008095
:1036D00007E003AB00932A460F4B04A9404600F0D5
:1036E00093F8B0F1FF3F824603D0099B53440993FE
:1036F00042E7AB895B0601D4099801E04FF0FF3047
:103700001DB0BDE8F08F00BF184100081E41000841
:103710002241000800000000813400082DE9F04734
:1037200091461F460A698B68DDF820809342B8BF36
:103730001346C9F8003091F8432006460C4612B1F2
:103740000133C9F800302368990642BFD9F8003028
:103750000233C9F80030256815F0060510D104F1D0
:10376000190A07E00123524639463046C047013066
:103770001AD00135E368D9F800209B1A9D42F1DB8D
:1037800094F843302268003318BF012392060FD506
:10379000E1185A1C302081F84300224494F8451067
:1037A00082F84310023303E04FF0FF30BDE8F087AA
:1037B00004F1430239463046C0470130F4D0226854
:1037C000D9F80050E36802F00602042A08BF5D1B26
:1037D0002269A3680CBF25EAE57500259342C4BFA2
:1037E0009B1AED184FF000091A344D4509D00123FA
:1037F000224639463046C0470130D5D009F101098B
:10380000F3E70020BDE8F0872DE9F04317460A7E74
:1038100085B06E2A984606460C460C9B01F1430E75
:1038200000F0AE8011D8632A22D009D8002A00F017
:10383000BB80582A40F0CA8081F84520834955E072
:10384000642A1ED0692A1CD0C0E0732A00F0B08020
:1038500009D86F2A2ED0702A40F0B8800A6842F04A
:1038600020020A603EE0752A24D0782A3AD0ADE0E2
:103870001A6801F14205111D1960136884F842307D
:10388000A8E021681A6811F0800F02D0111D19609C
:1038900008E011F0400F02F10401196002D0B2F902
:1038A000003000E01368002B3CDA2D225B4284F8E4
:1038B000432037E021681A6811F0800F02D0111DF3
:1038C000196007E011F0400F02F10401196001D006
:1038D000138800E01368227E5C496F2A14BF0A2215
:1038E00008221BE078225A4984F84520226818688B
:1038F00012F0800F00F104051D6003D1550601D5BB
:10390000038800E00368D00744BF42F02002226031
:103910001BB9226822F0200222601022002084F8C5
:10392000430001E049490A226568A560002D08DBD3
:10393000206820F0040020602BB9002D7DD1754651
:103940000CE0002B79D07546B3FBF2F002FB10338C
:10395000CB5C05F8013D03460028F5D1082A0BD1C0
:103960002368DA0708D5236962689A42DEBF3023EC
:1039700005F8013C05F1FF35C5EB0E0323612EE090
:1039800008681A68496910F0800F03D0101D18608C
:10399000136808E010F0400F02F10400186013688B
:1039A00001D0198000E0196000232361754616E0FC
:1039B0001A68111D1960156862680021284600F018
:1039C0004FF808B1401B6060636804E004F14205F1
:1039D00084F8422001232361002384F84330CDF88A
:1039E00000803B4603AA21463046FFF797FE013090
:1039F00002D14FF0FF3026E023692A46394630468F
:103A0000C0470130F5D023689B0710D5002504F18D
:103A1000190907E001234A4639463046C0470130BC
:103A2000E7D00135E368039A9B1A9D42F2DBE06818
:103A3000039B9842B8BF184605E00B7884F84230E3
:103A400004F142058AE705B0BDE8F083294100088A
:103A50003A410008000000000000000000000000E3
:103A600001F0FF01102A2BDB10F0070F08D010F82F
:103A7000013B013A8B422DD010F0070F42B3F6D133
:103A8000F0B441EA012141EA014122F007047FF04C
:103A900000070023F0E80256083C85EA010586EAA3
:103AA000010685FA47F5A3FA87F586FA47F6A5FADF
:103AB00087F68EB9EED1F0BC01F0FF0102F00702EB
:103AC00032B110F8013B013A83EA010313B1F8D196
:103AD0000020704701387047002D06BF3546033877
:103AE000073815F0010F07D1013015F4807F02BFB0
:103AF000013015F4C03F0130F0BC0138704700BF01
:103B000010B5431E0A44914204D011F8014B03F84A
:103B1000014FF8E710BD884210B501EB020301D850
:103B2000421E0BE09842FBD28118D21AD34204D035
:103B300013F8014D01F8014DF8E710BD994204D08A
:103B400011F8014B02F8014FF8E710BD30B500291C
:103B50003ED051F8042C0B1F1E49002AB8BF9B18F9
:103B60000A680C4612B95A600B6030BD9A420ED9F1
:103B700019685818824204BF106852685A6004BF1E
:103B800009181960236030BD994203D80A4651686C
:103B90000029F9D1146815199D420AD11B682344E4
:103BA000D0188142136013D10868034413604B6836
:103BB0000DE002D90C23036030BD18681C18A14227
:103BC00004BF0C684968596004BF0019186053604D
:103BD00030BD00BF2002002070B5CD1C25F00305CC
:103BE00008350C2D38BF0C25002D064603DA0C23B2
:103BF0003360002070BDA942F9D81F4B1C681A46DB
:103C00002146A1B10B685B1B0ED40B2B03D90B60B3
:103C1000CC18CD501EE08C420DBF63684B686360CA
:103C2000136018BF0C4615E00C464968E9E7134CD1
:103C300023681BB9304600F049F820602946304619
:103C400000F044F8431CD2D0C41C24F00304A0426A
:103C50000AD1256004F10B00231D20F00700C31AD0
:103C600009D05A42E25070BD211A304600F02EF8B9
:103C70000130EED1BBE770BD200200201C02002005
:103C8000F8B5074615460E4621B91146BDE8F8407D
:103C9000FFF7A2BF1AB9FFF759FF2846F8BD00F099
:103CA00025F885420ED929463846FFF795FF044688
:103CB00050B131462A46FFF723FF31463846FFF719
:103CC00045FF01E03046F8BD2046F8BD38B5064C4A
:103CD0000023054608462360FEF716F8431C02D170
:103CE000236803B12B6038BD2402002051F8040C76
:103CF0000028BEBF091851F8043CC01804387047AA
:103D00002E2E2F73797374656D2F7372632F7374F6
:103D10006D333266342D68616C2F73746D33326687
:103D20003478785F68616C5F636F727465782E6356
:103D3000000000002E2E2F73797374656D2F73723F
:103D4000632F73746D333266342D68616C2F737416
:103D50006D3332663478785F68616C5F6770696F65
:103D60002E630000000000000102030401020304AE
:103D7000060708092E2E2F73797374656D2F7372E1
:103D8000632F73746D333266342D68616C2F7374D6
:103D90006D3332663478785F68616C5F7263632E6E
:103DA000630000002E2E2F73797374656D2F73726C
:103DB000632F73746D333266342D68616C2F7374A6
:103DC0006D3332663478785F68616C5F74696D2E2C
:103DD0006300000061626F727428292C2065786985
:103DE00074696E672E2E2E002C2066756E637469C2
:103DF0006F6E3A2000000000617373657274696F22
:103E00006E2022257322206661696C65643A206603
:103E1000696C6520222573222C206C696E65202533
:103E200064257325730A00006173736572745F7093
:103E30006172616D2829206661696C65643A20664B
:103E4000696C6520222573222C206C696E65202503
:103E5000640A00000A0000006D61696E28617267E3
:103E6000633D25642C20617267763D5B0000000095
:103E70002C20000022257322000000005D293B0A4F
:103E800000000000003C3C3C3C00183C3C183C82DC
:103E900002823C1CA222A21C00000000000000FACA
:103EA000000000C000C000287C287C284854FE5434
:103EB00024866610CCC20A44AA926C0000C0A000FE
:103EC0000082443800003844820028107C102810FA
:103ED000107C101000000C0A0010101010100000D0
:103EE00006060040201008047CA2928A7C00FE4056
:103EF000200062928A86426C9292824408FE482890
:103F0000189CA2A2A2E44C9292927CE0908E8080B7
:103F10006C9292926C7C9292926400006C6C0000A5
:103F2000006C6A00008244281028282828281028BD
:103F300044820060908A80407AAA9A827C7E909027
:103F4000907E6C929292FE448282827C7C828282FB
:103F5000FE82929292FE80909090FE5C9282827C91
:103F6000FE101010FE0082FE8200FC0202020C8293
:103F7000442810FE02020202FEFE403040FEFE1007
:103F80002040FE7C8282827C60909090FE7A8484C5
:103F900084786E909090FE4C929292648080FE8025
:103FA00080FC020202FCF8040204F8FE040804FE8D
:103FB0008244384482E0100E10E0C2A2928A860049
:103FC0000082FE00040810204000FE820000204015
:103FD000804020020202020200204080001E2A2AA5
:103FE0002A041C222222FE222222221CFE2222221B
:103FF0001C182A2A2A1CA0A07E20203C2A2A2A102B
:104000001E202010FE0002BE220000BC220204007E
:10401000221408FE0002FE82001E201E203E1E20EA
:1040200020103E1C2222221C102828283E3E282830
:1040300028102020103E00042A2A2A122222FC20C6
:10404000203E0402023C38040204383C020C023CCC
:1040500022140814223C0A0A0A3022322A2622821A
:10406000826C10000000FE000000106C8282402074
:104070004080400049535F434F4F52445F56414C8C
:10408000494428782C7929002E2E2F7372632F4CE7
:1040900063642E6300000000202020202000000028
:1040A0002020202000000000447261774D617A6575
:1040B00000000000506C61636546696775726500B9
:1040C00049734D6F7665506F737369626C6500005C
:1040D0002E2E2F7372632F67616D652E63000000B3
:1040E000300000002057494E200000001E746E1F53
:1040F000640000006B656C6C000000004869744F40
:10410000626C69676174696F6E0000005365744684
:104110006967757265004300232D302B2000686CA1
:104120004C006566674546470030313233343536DA
:104130003738394142434445460030313233343513
:0B414000363738396162636465660041
:10414C007856341284010020000000000024F40092
:10415C00FF8199BDBD9981FFFF8199A5A59981FF2B
:10416C00FF81BDBDBDBD81FFFF81BDA5A5BD81FF8B
:10417C00FF818181818181FFFF818199998181FFFB
:10418C0020202020200001FF0101010101FFFFFF81
:10419C006120000845200008292000087D20000827
:1041AC001D2F0008D1200008B52000089920000818
:1041BC00ED200008952F0008312A0008312A00084C
:1041CC00312A0008312A0008312A000804000404AE
:1041DC000404040402040204040404040404040299
:1041EC000404040004040404040404040404040487
:1041FC00040404040204020402040204040204027F
:10420C000402040202040204020402047D200008D9
:10421C002920000845200008612000081D2F0008F7
:10422C00ED20000899200008B5200008D1200008D6
:10423C00952F0008312A0008312A0008312A00087D
:10424C00312A0008312A000801FFFFFF0C0CFFFF88
:10425C000000000000000000000000000000000052
:10426C000000000000000000000000000000000042
:10427C0016410008000000000000000000000000D3
:10428C000000000000000000000000000000000022
:10429C000000000000000000000000000000000012
:1042AC000000000000000000000000000000000002
:0842BC00100100203254769835
:040000050800018965
:00000001FF
